S01300006170706C5F6472697665722E7372656379
S11300000C9452000C9464000C9464000C946400EE
S11300100C9464000C9464000C9464000C94E4014B
S11300200C9464000C9464000C9464000C94BF0160
S11300300C9464000C9464000C9464000C946400AC
S11300400C9464000C9464000C9464000C9464009C
S11300500C9464000C9464000C9464000C9464008C
S11300600C9464000C946400036EDB363D9A9999F9
S1130070993DABAAAA2A3E000000803F072C7AA52E
S1130080BA6CC590DA3B9365FC8BBC53F810FD3C0D
S11300905692834DBD879D3AB63DCBC9BF5BBE73B7
S11300A0DA0FC93F11241FBECFEFD8E0DEBFCDBFAA
S11300B021E0A0E0B1E001C01D92A935B207E1F74B
S11300C00E9466000C947C0A0C9400000E94B50007
S11300D00E9460020E94750278940E94E9008CE3F9
S11300E08AB90E9420018091360190913701A09134
S11300F03801B09139018056904FAF4FBF4F809374
S1130100550190935601A0935701B09358010E9452
S113011089020E94E9020E941D030E94E5030E94D5
S11301202A050E946D058091550190915601A09178
S11301305701B091580140913601509137016091B7
S1130140380170913901481759076A077B07D8F3BA
S11301508056904FAF4FBF4F8093550190935601F7
S1130160A0935701B0935801D2CF80E387B98CE0B4
S11301708093B80084E08093BC00089584EA80935F
S1130180BC00ECEBF0E080818823ECF7089584E96F
S11301908093BC0081E28A95F1F700000895809372
S11301A0BB0084E88093BC00ECEBF0E08081882302
S11301B0ECF7089520E4829FC001112484688093A1
S11301C0BC00ECEBF0E080818823ECF78091BB006D
S11301D0089588E690E00E94BE0088E60E94CF0061
S11301E08BE60E94CF0080E00E94CF000E94C700EF
S11301F00E94BE0088E60E94CF008BE10E94CF00DF
S113020080E00E94CF000E94C7000E94BE0088E6E2
S11302100E94CF008CE10E94CF0088E00E94CF00B2
S11302200E94C7000E94BE0088E60E94CF008AE1B7
S11302300E94CF0083E00E94CF000E94C70008956F
S1130240CF92DF92EF92FF921F93CF93DF93C4EF8D
S1130250D1E00E94BE0088E60E94CF0083E40E94A1
S1130260CF000E94BE0089E60E94CF0081E00E9478
S1130270DA00182F81E00E94DA00212F30E0322FBB
S11302802227A901482BCA01092E000CAA0BBB0B7B
S113029040914D0150914E0160914F017091500178
S11302A0840F951FA61FB71F80934D0190934E0195
S11302B0A0934F01B093500181E00E94DA00182FFF
S11302C080E00E94DA00212F30E0322F2227A9019A
S11302D0482BCA01092E000CAA0BBB0B4091080144
S11302E05091090160910A0170910B01840F951FCF
S11302F0A61FB71F8093080190930901A0930A01D8
S1130300B0930B010E94C700219709F0A2CF60911E
S11303104D0170914E0180914F01909150010F2E2B
S1130320F4EFCF2EDD24D394E12CF12CF02DA70192
S113033096010E943B0A20934D0130934E01409355
S11303404F0150935001609108017091090180910F
S11303500A0190910B01A70196010E943B0A209388
S113036008013093090140930A0150930B01DF9176
S1130370CF911F91FF90EF90DF90CF9008951F923F
S11303800F920FB60F9211248F939F93AF93BF9345
S11303908091360190913701A0913801B0913901D3
S11303A00196A11DB11D8093360190933701A0934E
S11303B03801B0933901BF91AF919F918F910F9004
S11303C00FBE0F901F9018951F920F920FB60F92A9
S11303D011242F933F938F939F93809110019091B9
S11303E0110101969093110180931001209148010D
S11303F03091490128173907ECF410921101109239
S11304001001809106019091070190934901809316
S1130410480199236CF45B988091480190914901BB
S113042091958195910990934901809348010AC05F
S11304305B9A08C08130910511F45A9A03C002975F
S113044009F45A9880911A0190911B010196909396
S11304501B0180931A0120914B0130914C01281704
S11304603907ECF410921B0110921A0180911201C9
S11304709091130190934C0180934B0199236CF458
S11304805D9A80914B0190914C01919581959109D0
S113049090934C0180934B010AC05D9808C0813051
S11304A0910511F45C9A03C0029709F45C989F913A
S11304B08F913F912F910F900FBE0F901F90189521
S11304C0A0EBB0E01C92E1EBF0E010828C91826032
S11304D08C93808182608083E0E7F0E08081826099
S11304E0808387E28093B300089510928000E1E84E
S11304F0F0E01082808189608083EFE6F0E0808103
S1130500826080838FE090E09093890080938800DC
S11305100895CF930E94BE0088E60E94CF008FE327
S11305200E94CF000E94BE0089E60E94CF0081E0B5
S11305300E94DA00C82F80E00E94DA002C2F30E0FD
S1130540322F2227282B30933B0120933A010E941B
S1130550C70080913A0190913B0188519C4F909340
S11305603B0180933A01893020E292073CF088E015
S113057090E290933B0180933A0109C0883F9F4DDC
S113058034F488EF9FED90933B0180933A0160919E
S11305903A0170913B01072E000C880B990B0E94C5
S11305A0630820E030E240E056E40E94B9070E946C
S11305B099072CE53FE84CE752E40E9473096093E5
S11305C01601709317018093180190931901CF912C
S11305D00895CF92DF92EF92FF9280914A018111A8
S11305E027C0C0901601D0901701E0901801F09038
S11305F0190120E030E040E05FEBC701B6010E9442
S11306006E091816ACF420E030E040E05FE3C70167
S1130610B6010E94B40788235CF4C0922201D092F0
S11306202301E0922401F092250181E080934A01A4
S1130630FF90EF90DF90CF9008958F929F92AF92AA
S1130640BF92CF92DF92EF92FF92CF930E94BE00AF
S113065088E60E94CF0083E40E94CF000E94BE007F
S113066089E60E94CF0081E00E94DA00C82F81E071
S11306700E94DA002C2F30E0322F2227A901482BC8
S1130680CA01092E000CAA0BBB0B40914D015091DD
S11306904E0160914F0170915001840F951FA61F68
S11306A0B71F80934D0190934E01A0934F01B093D7
S11306B0500181E00E94DA00C82F80E00E94DA0035
S11306C02C2F30E0322F2227A901482BCA01092EF2
S11306D0000CAA0BBB0B40910801509109016091D9
S11306E00A0170910B01840F951FA61FB71F8093F9
S11306F0080190930901A0930A01B0930B010E9491
S1130700C70060913201709133018091080190918A
S11307100901681B790B7093330160933201072E32
S1130720000C880B990B0E9463082FEF35E042E020
S113073058E30E94730920912201309123014091D2
S11307402401509125010E942D074B015C018091E9
S113075014019091150120914D0130914E01821B9D
S1130760930B909315018093140127E137EB41ED2E
S113077059E36091160170911701809118019091CD
S113078019010E9473096B017C0129EC35EE4FE7D6
S11307905FE3C501B4010E9473099B01AC01C70169
S11307A0B6010E942D076093220170932301809368
S11307B0240190932501CF91FF90EF90DF90CF908B
S11307C0BF90AF909F908F9008958F929F92AF9219
S11307D0BF92CF92DF92EF92FF9220911E0130914F
S11307E01F014091200150912101609122017091DB
S11307F0230180912401909125010E942C072091CE
S113080026013091270140912801509129010E942D
S11308102C074B015C01609351017093520180934A
S1130820530190935401C0904401D0904501E0904D
S11308304601F090470120E030E040E251E4C70176
S1130840B6010E946E09181654F020E030E040E230
S113085051ECC701B6010E94B4078823A4F42FE821
S113086032EC45E75CE3C701B6010E947309A501B8
S113087094010E942D07609351017093520180935B
S1130880530190935401C0905101D0905201E090D3
S11308905301F09054012DEC3CEC4CE250E4C701C0
S11308A0B6010E94730920914001309141014091A9
S11308B04201509143010E942D074B015C0120E04D
S11308C030E048EC53E40E946E0918166CF480E0A2
S11308D090E0A8ECB3E48093400190934101A0938D
S11308E04201B09343011FC020E030E048EC53ECD8
S11308F0C501B4010E94B40788234CF080924001E2
S113090090924101A0924201B09243010CC080E058
S113091090E0A8ECB3EC8093400190934101A09344
S11309204201B093430120E030E040E951E4C701C3
S1130930B6010E9473092091400130914101409118
S11309404201509143010E942D074B015C0120910B
S11309502A0130912B0140912C0150912D01C701A6
S1130960B6010E942C072AE037ED43E25CE30E94C3
S113097073099B01AC01C501B4010E942D074B0111
S11309805C0120E030E048EC53E40E946E09181644
S11309906CF480E090E0A8ECB3E48093440190937D
S11309A04501A0934601B09347011FC020E030E009
S11309B048EC53ECC501B4010E94B40788234CF001
S11309C08092440190924501A0924601B092470161
S11309D00CC080E090E0A8ECB3EC809344019093C9
S11309E04501A0934601B0934701C0922A01D092D9
S11309F02B01E0922C01F0922D01C0904401D09083
S1130A004501E0904601F090470120E030E040EAE3
S1130A1050E4C701B6010E94B407882394F420E08F
S1130A2030E040EA50ECC701B6010E946E09181686
S1130A3044F4109244011092450110924601109220
S1130A404701FF90EF90DF90CF90BF90AF909F90C1
S1130A508F900895CF92DF92EF92FF92C09022017F
S1130A60D0902301E0902401F090250120E030E0B3
S1130A7040EF51E4C701B6010E946E09181674F0E4
S1130A8020E030E040EF51ECC701B6010E94B4070A
S1130A90882324F080914A0181111AC010924401E4
S1130AA010924501109246011092470110924001A4
S1130AB010924101109242011092430110924A0196
S1130AC010921E0110921F01109220011092210118
S1130AD0FF90EF90DF90CF900895CF92DF92EF9246
S1130AE0FF92C0904401D0904501E0904601F090FF
S1130AF04701C0920C01D0920D01E0920E01F092D8
S1130B000F01C0923C01D0923D01E0923E01F0926F
S1130B103F0120E030E0A901609126017091270196
S1130B2080912801909129010E94B40781113FC04E
S1130B3020E030E0A901C701B6010E94B407882370
S1130B40B4F426EA3BE944EC5AE360911E01709147
S1130B501F0180912001909121010E942D07609333
S1130B601E0170931F01809320019093210120E0C6
S1130B7030E0A901C701B6010E946E091816BCF441
S1130B8026EA3BE944EC5AE360911E0170911F018F
S1130B9080912001909121010E942C0760931E01F5
S1130BA070931F01809320019093210109C020E0DC
S1130BB030E0A901C701B6010E946E0918163CF580
S1130BC020E030E040E151E4C701B6010E942D0766
S1130BD09B01AC0160E070E080E89FE30E94B907EC
S1130BE020E030EE4BEA55E40E9473099B01AC010E
S1130BF060E070E88AEC93E40E942C0760930C0197
S1130C0070930D0180930E0190930F0142C020E078
S1130C1030E0A901C701B6010E94B407882384F516
S1130C2020E030E040E151E4C701B6010E942C0706
S1130C309B01AC0160E070E080E89FE30E94B9078B
S1130C4020E030EE4BEA55E40E9473099B01AC01AD
S1130C5060E070E88AEC93EC0E942C0760930C012E
S1130C6070930D0180930E0190930F0120E030E00A
S1130C70A901C701B6010E946E091816D4F509C06E
S1130C8020E030E0A901C701B6010E946E091816E0
S1130C903CF520E030E040E151E4C701B6010E9498
S1130CA02D079B01AC0160E070E080E89FE30E94A7
S1130CB0B90720E030EE4BEA55E40E9473099B012A
S1130CC0AC0160E070E88AEC93E40E942C07609326
S1130CD03C0170933D0180933E0190933F012FC0EE
S1130CE020E030E0A901C701B6010E94B4078823BF
S1130CF034F520E030E040E151E4C701B6010E9440
S1130D002C079B01AC0160E070E080E89FE30E9447
S1130D10B90720E030EE4BEA55E40E9473099B01C9
S1130D20AC0160E070E88AEC93EC0E942C076093BD
S1130D303C0170933D0180933E0190933F01C0902C
S1130D400C01D0900D01E0900E01F0900F0120E015
S1130D5030E0A901C701B6010E946E0918167CF49F
S1130D60A701960160E070E088EC93E40E942C07F0
S1130D700E942B0870931D0160931C011CC020E08D
S1130D8030E0A901C701B6010E94B40788237CF4AE
S1130D90A701960160E070E088EC93EC0E942C07B8
S1130DA00E942B0870931D0160931C0104C01092D3
S1130DB01D0110921C01C0903C01D0903D01E090B7
S1130DC03E01F0903F0120E030E0A901C701B601E7
S1130DD00E946E0918167CF4A701960160E070E089
S1130DE088EC93E40E942C070E942B087093050161
S1130DF0609304011CC020E030E0A901C701B601E2
S1130E000E94B40788237CF4A701960160E070E097
S1130E1088EC93EC0E942C070E942B087093050128
S1130E206093040104C010920501109204018091A2
S1130E301C0190911D0190930701809306018091FC
S1130E400401909105019093130180931201FF9086
S1130E50EF90DF90CF9008955058BB27AA270E94A7
S1130E6044070C9434090E94260938F00E942D0985
S1130E7020F039F49F3F19F426F40C94E8080EF49A
S1130E80E095E7FB0C94E208E92F0E94450958F32A
S1130E90BA17620773078407950720F079F4A6F55B
S1130EA00C9467090EF4E0950B2EBA2FA02D0B01BC
S1130EB0B90190010C01CA01A0011124FF27591B9B
S1130EC099F0593F50F4503E68F11A16F040A22FA1
S1130ED0232F342F4427585FF3CF46953795279512
S1130EE0A795F0405395C9F77EF41F16BA0B620B11
S1130EF0730B840BBAF09150A1F0FF0FBB1F661F58
S1130F00771F881FC2F70EC0BA0F621F731F841F9A
S1130F1048F4879577956795B795F7959E3F08F0C0
S1130F20B0CF9395880F08F09927EE0F9795879582
S1130F3008959F939F77EEE389379E0728F4E8E6A8
S1130F40F0E00E9412090CC00E949E089058A2EA88
S1130F502AED3FE049EC5FE30E9444070E94340914
S1130F600F9007FC905808950E94BE0808F481E091
S1130F7008950E94CD070C9434090E942D0958F05D
S1130F800E94260940F029F45F3F29F00C94E208FE
S1130F9051110C9468090C94E8080E94450968F3FF
S1130FA09923B1F3552391F3951B550BBB27AA271E
S1130FB062177307840738F09F5F5F4F220F331F58
S1130FC0441FAA1FA9F335D00E2E3AF0E0E832D020
S1130FD091505040E695001CCAF72BD0FE2F29D023
S1130FE0660F771F881FBB1F261737074807AB07F5
S1130FF0B0E809F0BB0B802DBF01FF2793585F4F6A
S11310003AF09E3F510578F00C94E2080C9468097C
S11310105F3FE4F3983ED4F3869577956795B7954B
S1131020F7959F5FC9F7880F911D9695879597F956
S11310300895E1E0660F771F881FBB1F62177307CF
S11310408407BA0720F0621B730B840BBA0BEE1FE4
S113105088F7E09508950E9432086894B1110C94C1
S1131060680908950E944D0988F09F5798F0B92F98
S11310709927B751B0F0E1F0660F771F881F991FC9
S11310801AF0BA95C9F714C0B13091F00E946709FB
S1131090B1E008950C946709672F782F8827B85F0B
S11310A039F0B93FCCF3869577956795B395D9F721
S11310B03EF490958095709561957F4F8F4F9F4F2B
S11310C00895E89409C097FB3EF490958095709537
S11310D061957F4F8F4F9F4F9923A9F0F92F96E980
S11310E0BB279395F695879577956795B795F111F5
S11310F0F8CFFAF4BB0F11F460FF1BC06F5F7F4F92
S11311008F4F9F4F16C0882311F096E911C07723A3
S113111021F09EE8872F762F05C0662371F096E8AC
S1131120862F70E060E02AF09A95660F771F881F7B
S1131130DAF7880F9695879597F90895DF93CF93FB
S11311401F930F938B01EC01ECE7F0E00E94EB0896
S11311500E9434099801AE018B01EC0160E070E05B
S113116080E89FE30E942C070E94E6099801AE01E3
S11311700F911F91CF91DF910C948609990F00086C
S1131180550FAA0BE0E8FEEF16161706E807F90755
S1131190C0F012161306E407F50798F0621B730BF0
S11311A0840B950B39F40A2661F0232B242B252B71
S11311B021F408950A2609F4A140A6958FEF811D14
S11311C0811D089597F99F6780E870E060E00895B5
S11311D09FEF80EC0895DF93CF931F930F93FF92BB
S11311E0EF92DF927B018C01689406C0DA2EEF0146
S11311F00E948609FE01E894A591259135914591B7
S11312005591A6F3EF010E944407FE019701A8013E
S1131210DA9469F7DF90EF90FF900F911F91CF91CF
S1131220DF9108959F938F937F936F93FF93EF9331
S11312309B01AC010E947309EF91FF910E94EB089E
S11312402F913F914F915F910C94730900240A945C
S11312501616170618060906089500240A9412168D
S11312601306140605060895092E0394000C11F4C0
S1131270882352F0BB0F40F4BF2B11F460FF04C06D
S11312806F5F7F4F8F4F9F4F089557FD9058440FC6
S1131290551F59F05F3F71F04795880F97FB991FD1
S11312A061F09F3F79F0879508951216130614068E
S11312B0551FF2CF4695F1DF08C01616170618061B
S11312C0991FF1CF86957105610508940895E894F6
S11312D0BB2766277727CB0197F908950E94BE089C
S11312E008F48FEF08950E9486090C9434090E9433
S11312F0260938F00E942D0920F0952311F00C9452
S1131300E2080C94E80811240C9468090E94450929
S113131070F3959FC1F3950F50E0551F629FF00144
S1131320729FBB27F00DB11D639FAA27F00DB11D5D
S1131330AA1F649F6627B00DA11D661F829F2227E6
S1131340B00DA11D621F739FB00DA11D621F839F6D
S1131350A00D611D221F749F3327A00D611D231F43
S1131360849F600D211D822F762F6A2F11249F5791
S113137050409AF0F1F088234AF0EE0FFF1FBB1F94
S1131380661F771F881F91505040A9F79E3F510553
S113139080F00C94E2080C9468095F3FE4F3983EF3
S11313A0D4F3869577956795B795F795E7959F5FFD
S11313B0C1F7FE2B880F911D9695879597F908958F
S11313C019F416F40C94E8080C94260A0E944D09AA
S11313D0B8F39923C9F3B6F39F57550B87FF0E94BF
S11313E0340A0024A0E640EA900180585695979567
S11313F028F4805C660F771F881F20F026173707B4
S1131400480730F4621B730B840B202931294A2BC3
S1131410A69517940794202531254A2758F7660F77
S1131420771F881F20F026173707480730F4620B10
S1131430730B840B200D311D411DA09581F7B9015B
S1131440842F9158880F9695879508959F3F31F082
S1131450915020F4879577956795B795880F911DDE
S11314609695879597F9089591505040660F771F88
S1131470881FD2F70895052E97FB1EF400940E944E
S1131480520A57FD07D00E945A0A07FC03D04EF4B3
S11314900C94520A50954095309521953F4F4F4FEB
S11314A05F4F089590958095709561957F4F8F4F0C
S11314B09F4F0895A1E21A2EAA1BBB1BFD010DC06C
S11314C0AA1FBB1FEE1FFF1FA217B307E407F507F0
S11314D020F0A21BB30BE40BF50B661F771F881FCC
S11314E0991F1A9469F760957095809590959B0162
S10F14F0AC01BD01CF010895F894FFCFBA
S903014AB1
